:100000000C942A000C9434000C9434000C943400AA
:100010000C9434000C9434000C9434000C94340090
:100020000C9434000C9434000C9434000C94340080
:100030000C9434000C9434000C9434000C94340070
:100040000C9434000C9434000C9434000C94340060
:100050000C94340011241FBECFE5D8E0DEBFCDBF25
:100060000E9456000C946C000C94000087B18F77AE
:1000700087B987B1806487B986B1876086B986B150
:10008000806886B90895877097B1987F97B997B1BE
:10009000892B87B986B1806486B93699FECF24B1A1
:1000A00085B190E0982F8827822B08958FEF84BB2D
:1000B0001ABA15BA0E94360080E00E9443008F31C0
:1000C00091051CF081E085BBF7CF0A971CF482E014
:0C00D00085BBF2CF15BAF0CFF894FFCF3B
:00000001FF
